{
  "contractName": "DirectStorage",
  "abi": [
    {
      "inputs": [
        {
          "internalType": "uint256",
          "name": "",
          "type": "uint256"
        }
      ],
      "name": "files",
      "outputs": [
        {
          "internalType": "string",
          "name": "fileName",
          "type": "string"
        },
        {
          "internalType": "bytes",
          "name": "fileContent",
          "type": "bytes"
        },
        {
          "internalType": "address",
          "name": "uploader",
          "type": "address"
        },
        {
          "internalType": "uint256",
          "name": "timestamp",
          "type": "uint256"
        }
      ],
      "stateMutability": "view",
      "type": "function",
      "constant": true
    },
    {
      "inputs": [
        {
          "internalType": "string",
          "name": "name",
          "type": "string"
        },
        {
          "internalType": "bytes",
          "name": "content",
          "type": "bytes"
        }
      ],
      "name": "uploadFile",
      "outputs": [],
      "stateMutability": "nonpayable",
      "type": "function"
    },
    {
      "inputs": [
        {
          "internalType": "uint256",
          "name": "index",
          "type": "uint256"
        }
      ],
      "name": "getFile",
      "outputs": [
        {
          "components": [
            {
              "internalType": "string",
              "name": "fileName",
              "type": "string"
            },
            {
              "internalType": "bytes",
              "name": "fileContent",
              "type": "bytes"
            },
            {
              "internalType": "address",
              "name": "uploader",
              "type": "address"
            },
            {
              "internalType": "uint256",
              "name": "timestamp",
              "type": "uint256"
            }
          ],
          "internalType": "struct DirectStorage.FileData",
          "name": "",
          "type": "tuple"
        }
      ],
      "stateMutability": "view",
      "type": "function",
      "constant": true
    }
  ],
  "bytecode": "0x608060405234801561001057600080fd5b50610d5c806100206000396000f3fe608060405234801561001057600080fd5b50600436106100415760003560e01c80632bfda313146100465780633b108f8314610076578063f4c714b414610092575b600080fd5b610060600480360381019061005b91906106e0565b6100c5565b60405161006d91906108b5565b60405180910390f35b610090600480360381019061008b9190610aad565b6102cc565b005b6100ac60048036038101906100a791906106e0565b6103bf565b6040516100bc9493929190610bd7565b60405180910390f35b6100cd61052f565b6000805490508210610114576040517f08c379a000000000000000000000000000000000000000000000000000000000815260040161010b90610c76565b60405180910390fd5b6000828154811061012857610127610c96565b5b906000526020600020906004020160405180608001604052908160008201805461015190610cf4565b80601f016020809104026020016040519081016040528092919081815260200182805461017d90610cf4565b80156101ca5780601f1061019f576101008083540402835291602001916101ca565b820191906000526020600020905b8154815290600101906020018083116101ad57829003601f168201915b505050505081526020016001820180546101e390610cf4565b80601f016020809104026020016040519081016040528092919081815260200182805461020f90610cf4565b801561025c5780601f106102315761010080835404028352916020019161025c565b820191906000526020600020905b81548152906001019060200180831161023f57829003601f168201915b505050505081526020016002820160009054906101000a900473ffffffffffffffffffffffffffffffffffffffff1673ffffffffffffffffffffffffffffffffffffffff1673ffffffffffffffffffffffffffffffffffffffff1681526020016003820154815250509050919050565b600060405180608001604052808481526020018381526020013373ffffffffffffffffffffffffffffffffffffffff168152602001428152509080600181540180825580915050600190039060005260206000209060040201600090919091909150600082015181600001908051906020019061034a92919061056d565b5060208201518160010190805190602001906103679291906105f3565b5060408201518160020160006101000a81548173ffffffffffffffffffffffffffffffffffffffff021916908373ffffffffffffffffffffffffffffffffffffffff1602179055506060820151816003015550505050565b600081815481106103cf57600080fd5b90600052602060002090600402016000915090508060000180546103f290610cf4565b80601f016020809104026020016040519081016040528092919081815260200182805461041e90610cf4565b801561046b5780601f106104405761010080835404028352916020019161046b565b820191906000526020600020905b81548152906001019060200180831161044e57829003601f168201915b50505050509080600101805461048090610cf4565b80601f01602080910402602001604051908101604052809291908181526020018280546104ac90610cf4565b80156104f95780601f106104ce576101008083540402835291602001916104f9565b820191906000526020600020905b8154815290600101906020018083116104dc57829003601f168201915b5050505050908060020160009054906101000a900473ffffffffffffffffffffffffffffffffffffffff16908060030154905084565b60405180608001604052806060815260200160608152602001600073ffffffffffffffffffffffffffffffffffffffff168152602001600081525090565b82805461057990610cf4565b90600052602060002090601f01602090048101928261059b57600085556105e2565b82601f106105b457805160ff19168380011785556105e2565b828001600101855582156105e2579182015b828111156105e15782518255916020019190600101906105c6565b5b5090506105ef9190610679565b5090565b8280546105ff90610cf4565b90600052602060002090601f0160209004810192826106215760008555610668565b82601f1061063a57805160ff1916838001178555610668565b82800160010185558215610668579182015b8281111561066757825182559160200191906001019061064c565b5b5090506106759190610679565b5090565b5b8082111561069257600081600090555060010161067a565b5090565b6000604051905090565b600080fd5b600080fd5b6000819050919050565b6106bd816106aa565b81146106c857600080fd5b50565b6000813590506106da816106b4565b92915050565b6000602082840312156106f6576106f56106a0565b5b6000610704848285016106cb565b91505092915050565b600081519050919050565b600082825260208201905092915050565b60005b8381101561074757808201518184015260208101905061072c565b83811115610756576000848401525b50505050565b6000601f19601f8301169050919050565b60006107788261070d565b6107828185610718565b9350610792818560208601610729565b61079b8161075c565b840191505092915050565b600081519050919050565b600082825260208201905092915050565b60006107cd826107a6565b6107d781856107b1565b93506107e7818560208601610729565b6107f08161075c565b840191505092915050565b600073ffffffffffffffffffffffffffffffffffffffff82169050919050565b6000610826826107fb565b9050919050565b6108368161081b565b82525050565b610845816106aa565b82525050565b60006080830160008301518482036000860152610868828261076d565b9150506020830151848203602086015261088282826107c2565b9150506040830151610897604086018261082d565b5060608301516108aa606086018261083c565b508091505092915050565b600060208201905081810360008301526108cf818461084b565b905092915050565b600080fd5b600080fd5b7f4e487b7100000000000000000000000000000000000000000000000000000000600052604160045260246000fd5b6109198261075c565b810181811067ffffffffffffffff82111715610938576109376108e1565b5b80604052505050565b600061094b610696565b90506109578282610910565b919050565b600067ffffffffffffffff821115610977576109766108e1565b5b6109808261075c565b9050602081019050919050565b82818337600083830152505050565b60006109af6109aa8461095c565b610941565b9050828152602081018484840111156109cb576109ca6108dc565b5b6109d684828561098d565b509392505050565b600082601f8301126109f3576109f26108d7565b5b8135610a0384826020860161099c565b91505092915050565b600067ffffffffffffffff821115610a2757610a266108e1565b5b610a308261075c565b9050602081019050919050565b6000610a50610a4b84610a0c565b610941565b905082815260208101848484011115610a6c57610a6b6108dc565b5b610a7784828561098d565b509392505050565b600082601f830112610a9457610a936108d7565b5b8135610aa4848260208601610a3d565b91505092915050565b60008060408385031215610ac457610ac36106a0565b5b600083013567ffffffffffffffff811115610ae257610ae16106a5565b5b610aee858286016109de565b925050602083013567ffffffffffffffff811115610b0f57610b0e6106a5565b5b610b1b85828601610a7f565b9150509250929050565b600082825260208201905092915050565b6000610b418261070d565b610b4b8185610b25565b9350610b5b818560208601610729565b610b648161075c565b840191505092915050565b600082825260208201905092915050565b6000610b8b826107a6565b610b958185610b6f565b9350610ba5818560208601610729565b610bae8161075c565b840191505092915050565b610bc28161081b565b82525050565b610bd1816106aa565b82525050565b60006080820190508181036000830152610bf18187610b36565b90508181036020830152610c058186610b80565b9050610c146040830185610bb9565b610c216060830184610bc8565b95945050505050565b7f496e76616c696420696e64657800000000000000000000000000000000000000600082015250565b6000610c60600d83610b25565b9150610c6b82610c2a565b602082019050919050565b60006020820190508181036000830152610c8f81610c53565b9050919050565b7f4e487b7100000000000000000000000000000000000000000000000000000000600052603260045260246000fd5b7f4e487b7100000000000000000000000000000000000000000000000000000000600052602260045260246000fd5b60006002820490506001821680610d0c57607f821691505b60208210811415610d2057610d1f610cc5565b5b5091905056fea2646970667358221220d8e6c151a81a52449908f51b361aeb2b8a36519aa100018ac4c93d355ba48c0964736f6c634300080b0033",
  "immutableReferences": {},
  "source": "// SPDX-License-Identifier: MIT\r\n\r\npragma solidity ^0.8;\r\n\r\ncontract DirectStorage {\r\n    struct FileData {\r\n        string fileName;\r\n        bytes fileContent;\r\n        address uploader;\r\n        uint256 timestamp;\r\n    }\r\n\r\n    FileData[] public files;\r\n\r\n    function uploadFile(string memory name, bytes memory content) public {\r\n        files.push(FileData(name, content, msg.sender, block.timestamp));\r\n    }\r\n\r\n    function getFile(uint256 index) public view returns (FileData memory) {\r\n        require(index < files.length, \"Invalid index\");\r\n        return files[index];\r\n    }\r\n}\r\n",
  "sourcePath": "C:\\cip\\NewBlock\\NLH_BlockChain_BESU_Setup\\contracts\\DirectStorage.sol",
  "compiler": {
    "name": "solc",
    "version": "0.8.11+commit.d7f03943.Emscripten.clang"
  },
  "schemaVersion": "3.4.16",
  "updatedAt": "2025-08-22T08:00:17.545Z",
  "networkType": "ethereum",
  "devdoc": {
    "kind": "dev",
    "methods": {},
    "version": 1
  },
  "userdoc": {
    "kind": "user",
    "methods": {},
    "version": 1
  }
}