{
  "contractName": "DPDPDocumentSharing",
  "abi": [
    {
      "inputs": [],
      "stateMutability": "nonpayable",
      "type": "constructor"
    },
    {
      "inputs": [
        {
          "internalType": "uint256",
          "name": "",
          "type": "uint256"
        }
      ],
      "name": "companies",
      "outputs": [
        {
          "internalType": "uint256",
          "name": "id",
          "type": "uint256"
        },
        {
          "internalType": "string",
          "name": "name",
          "type": "string"
        },
        {
          "internalType": "bool",
          "name": "registered",
          "type": "bool"
        }
      ],
      "stateMutability": "view",
      "type": "function"
    },
    {
      "inputs": [],
      "name": "companyCount",
      "outputs": [
        {
          "internalType": "uint256",
          "name": "",
          "type": "uint256"
        }
      ],
      "stateMutability": "view",
      "type": "function"
    },
    {
      "inputs": [
        {
          "internalType": "uint256",
          "name": "",
          "type": "uint256"
        },
        {
          "internalType": "uint256",
          "name": "",
          "type": "uint256"
        },
        {
          "internalType": "uint256",
          "name": "",
          "type": "uint256"
        }
      ],
      "name": "documentAccess",
      "outputs": [
        {
          "internalType": "bool",
          "name": "",
          "type": "bool"
        }
      ],
      "stateMutability": "view",
      "type": "function"
    },
    {
      "inputs": [],
      "name": "documentCount",
      "outputs": [
        {
          "internalType": "uint256",
          "name": "",
          "type": "uint256"
        }
      ],
      "stateMutability": "view",
      "type": "function"
    },
    {
      "inputs": [],
      "name": "government",
      "outputs": [
        {
          "internalType": "address",
          "name": "",
          "type": "address"
        }
      ],
      "stateMutability": "view",
      "type": "function"
    },
    {
      "inputs": [],
      "name": "requestCount",
      "outputs": [
        {
          "internalType": "uint256",
          "name": "",
          "type": "uint256"
        }
      ],
      "stateMutability": "view",
      "type": "function"
    },
    {
      "inputs": [
        {
          "internalType": "uint256",
          "name": "",
          "type": "uint256"
        }
      ],
      "name": "requests",
      "outputs": [
        {
          "internalType": "uint256",
          "name": "requestId",
          "type": "uint256"
        },
        {
          "internalType": "uint256",
          "name": "userId",
          "type": "uint256"
        },
        {
          "internalType": "uint256",
          "name": "documentId",
          "type": "uint256"
        },
        {
          "internalType": "uint256",
          "name": "companyId",
          "type": "uint256"
        },
        {
          "internalType": "bool",
          "name": "approved",
          "type": "bool"
        },
        {
          "internalType": "uint256",
          "name": "timestamp",
          "type": "uint256"
        }
      ],
      "stateMutability": "view",
      "type": "function"
    },
    {
      "inputs": [],
      "name": "userCount",
      "outputs": [
        {
          "internalType": "uint256",
          "name": "",
          "type": "uint256"
        }
      ],
      "stateMutability": "view",
      "type": "function"
    },
    {
      "inputs": [
        {
          "internalType": "uint256",
          "name": "",
          "type": "uint256"
        },
        {
          "internalType": "uint256",
          "name": "",
          "type": "uint256"
        }
      ],
      "name": "userDocuments",
      "outputs": [
        {
          "internalType": "uint256",
          "name": "id",
          "type": "uint256"
        },
        {
          "internalType": "uint256",
          "name": "userId",
          "type": "uint256"
        },
        {
          "internalType": "string",
          "name": "ipfsHash",
          "type": "string"
        },
        {
          "internalType": "string",
          "name": "docType",
          "type": "string"
        },
        {
          "internalType": "uint256",
          "name": "timestamp",
          "type": "uint256"
        }
      ],
      "stateMutability": "view",
      "type": "function"
    },
    {
      "inputs": [
        {
          "internalType": "uint256",
          "name": "",
          "type": "uint256"
        }
      ],
      "name": "users",
      "outputs": [
        {
          "internalType": "uint256",
          "name": "id",
          "type": "uint256"
        },
        {
          "internalType": "string",
          "name": "name",
          "type": "string"
        },
        {
          "internalType": "bool",
          "name": "registered",
          "type": "bool"
        },
        {
          "internalType": "bool",
          "name": "consentGiven",
          "type": "bool"
        }
      ],
      "stateMutability": "view",
      "type": "function"
    },
    {
      "inputs": [
        {
          "internalType": "string",
          "name": "_name",
          "type": "string"
        }
      ],
      "name": "registerUser",
      "outputs": [
        {
          "internalType": "uint256",
          "name": "",
          "type": "uint256"
        }
      ],
      "stateMutability": "nonpayable",
      "type": "function"
    },
    {
      "inputs": [
        {
          "internalType": "string",
          "name": "_name",
          "type": "string"
        }
      ],
      "name": "registerCompany",
      "outputs": [
        {
          "internalType": "uint256",
          "name": "",
          "type": "uint256"
        }
      ],
      "stateMutability": "nonpayable",
      "type": "function"
    },
    {
      "inputs": [
        {
          "internalType": "uint256",
          "name": "_userId",
          "type": "uint256"
        }
      ],
      "name": "giveConsent",
      "outputs": [],
      "stateMutability": "nonpayable",
      "type": "function"
    },
    {
      "inputs": [
        {
          "internalType": "uint256",
          "name": "_userId",
          "type": "uint256"
        },
        {
          "internalType": "string",
          "name": "_ipfsHash",
          "type": "string"
        },
        {
          "internalType": "string",
          "name": "_docType",
          "type": "string"
        }
      ],
      "name": "uploadDocument",
      "outputs": [
        {
          "internalType": "uint256",
          "name": "",
          "type": "uint256"
        }
      ],
      "stateMutability": "nonpayable",
      "type": "function"
    },
    {
      "inputs": [
        {
          "internalType": "uint256",
          "name": "_userId",
          "type": "uint256"
        },
        {
          "internalType": "uint256",
          "name": "_documentId",
          "type": "uint256"
        },
        {
          "internalType": "uint256",
          "name": "_companyId",
          "type": "uint256"
        }
      ],
      "name": "requestDocument",
      "outputs": [
        {
          "internalType": "uint256",
          "name": "",
          "type": "uint256"
        }
      ],
      "stateMutability": "nonpayable",
      "type": "function"
    },
    {
      "inputs": [
        {
          "internalType": "uint256",
          "name": "_requestId",
          "type": "uint256"
        }
      ],
      "name": "approveRequest",
      "outputs": [],
      "stateMutability": "nonpayable",
      "type": "function"
    },
    {
      "inputs": [
        {
          "internalType": "uint256",
          "name": "_userId",
          "type": "uint256"
        },
        {
          "internalType": "uint256",
          "name": "_documentId",
          "type": "uint256"
        },
        {
          "internalType": "uint256",
          "name": "_companyId",
          "type": "uint256"
        }
      ],
      "name": "revokeAccess",
      "outputs": [],
      "stateMutability": "nonpayable",
      "type": "function"
    },
    {
      "inputs": [
        {
          "internalType": "uint256",
          "name": "_userId",
          "type": "uint256"
        },
        {
          "internalType": "uint256",
          "name": "_documentId",
          "type": "uint256"
        },
        {
          "internalType": "uint256",
          "name": "_companyId",
          "type": "uint256"
        }
      ],
      "name": "getDocument",
      "outputs": [
        {
          "components": [
            {
              "internalType": "uint256",
              "name": "id",
              "type": "uint256"
            },
            {
              "internalType": "uint256",
              "name": "userId",
              "type": "uint256"
            },
            {
              "internalType": "string",
              "name": "ipfsHash",
              "type": "string"
            },
            {
              "internalType": "string",
              "name": "docType",
              "type": "string"
            },
            {
              "internalType": "uint256",
              "name": "timestamp",
              "type": "uint256"
            }
          ],
          "internalType": "struct DPDPDocumentSharing.Document",
          "name": "",
          "type": "tuple"
        }
      ],
      "stateMutability": "view",
      "type": "function"
    },
    {
      "inputs": [
        {
          "internalType": "uint256",
          "name": "_userId",
          "type": "uint256"
        }
      ],
      "name": "getUserDocuments",
      "outputs": [
        {
          "components": [
            {
              "internalType": "uint256",
              "name": "id",
              "type": "uint256"
            },
            {
              "internalType": "uint256",
              "name": "userId",
              "type": "uint256"
            },
            {
              "internalType": "string",
              "name": "ipfsHash",
              "type": "string"
            },
            {
              "internalType": "string",
              "name": "docType",
              "type": "string"
            },
            {
              "internalType": "uint256",
              "name": "timestamp",
              "type": "uint256"
            }
          ],
          "internalType": "struct DPDPDocumentSharing.Document[]",
          "name": "",
          "type": "tuple[]"
        }
      ],
      "stateMutability": "view",
      "type": "function"
    },
    {
      "inputs": [
        {
          "internalType": "uint256",
          "name": "_requestId",
          "type": "uint256"
        }
      ],
      "name": "getRequest",
      "outputs": [
        {
          "components": [
            {
              "internalType": "uint256",
              "name": "requestId",
              "type": "uint256"
            },
            {
              "internalType": "uint256",
              "name": "userId",
              "type": "uint256"
            },
            {
              "internalType": "uint256",
              "name": "documentId",
              "type": "uint256"
            },
            {
              "internalType": "uint256",
              "name": "companyId",
              "type": "uint256"
            },
            {
              "internalType": "bool",
              "name": "approved",
              "type": "bool"
            },
            {
              "internalType": "uint256",
              "name": "timestamp",
              "type": "uint256"
            }
          ],
          "internalType": "struct DPDPDocumentSharing.DocumentRequest",
          "name": "",
          "type": "tuple"
        }
      ],
      "stateMutability": "view",
      "type": "function"
    }
  ],
  "bytecode": "0x608060405234801561001057600080fd5b50336000806101000a81548173ffffffffffffffffffffffffffffffffffffffff021916908373ffffffffffffffffffffffffffffffffffffffff1602179055506125c7806100606000396000f3fe608060405234801561001057600080fd5b506004361061012b5760003560e01c8063704f1b94116100ad578063ae104f2d11610071578063ae104f2d14610388578063c58343ef146103bc578063d7d1bbdb146103ec578063ea11af0f14610408578063f8125f34146104385761012b565b8063704f1b94146102b75780638062dfa9146102e757806381d12c58146103175780638e75dd471461034c578063a5b16b2e1461036a5761012b565b80632813d19d116100f45780632813d19d146101e8578063365b98b21461021a5780634735ab8e1461024d5780635649acca1461027d5780635badbe4c146102995761012b565b80625441941461013057806307973ccf146101605780630d6606fa1461017e5780630d804f6e146101ae5780632672f526146101ca575b600080fd5b61014a600480360381019061014591906119d1565b610468565b6040516101579190611a33565b60405180910390f35b61016861059a565b6040516101759190611a33565b60405180910390f35b61019860048036038101906101939190611a7a565b6105a0565b6040516101a59190611a33565b60405180910390f35b6101c860048036038101906101c39190611b05565b610777565b005b6101d2610858565b6040516101df9190611b99565b60405180910390f35b61020260048036038101906101fd9190611bb4565b61087c565b60405161021193929190611c84565b60405180910390f35b610234600480360381019061022f9190611bb4565b61093b565b6040516102449493929190611cc2565b60405180910390f35b61026760048036038101906102629190611b05565b610a0d565b6040516102749190611a33565b60405180910390f35b61029760048036038101906102929190611bb4565b610cb8565b005b6102a1610dbb565b6040516102ae9190611a33565b60405180910390f35b6102d160048036038101906102cc91906119d1565b610dc1565b6040516102de9190611a33565b60405180910390f35b61030160048036038101906102fc9190611bb4565b610f1c565b60405161030e9190611ea6565b60405180910390f35b610331600480360381019061032c9190611bb4565b6110d0565b60405161034396959493929190611ec8565b60405180910390f35b610354611119565b6040516103619190611a33565b60405180910390f35b61037261111f565b60405161037f9190611a33565b60405180910390f35b6103a2600480360381019061039d9190611f29565b611125565b6040516103b3959493929190611f69565b60405180910390f35b6103d660048036038101906103d19190611bb4565b611288565b6040516103e39190612054565b60405180910390f35b61040660048036038101906104019190611bb4565b611302565b005b610422600480360381019061041d9190611b05565b61146a565b60405161042f919061206f565b60405180910390f35b610452600480360381019061044d9190611b05565b6114a6565b60405161045f9190612107565b60405180910390f35b60008060009054906101000a900473ffffffffffffffffffffffffffffffffffffffff1673ffffffffffffffffffffffffffffffffffffffff163373ffffffffffffffffffffffffffffffffffffffff16146104f9576040517f08c379a00000000000000000000000000000000000000000000000000000000081526004016104f090612175565b60405180910390fd5b6002600081548092919061050c906121c4565b9190505550604051806060016040528060025481526020018381526020016001151581525060066000600254815260200190815260200160002060008201518160000155602082015181600101908051906020019061056c92919061176d565b5060408201518160020160006101000a81548160ff0219169083151502179055509050506002549050919050565b60015481565b60008060009054906101000a900473ffffffffffffffffffffffffffffffffffffffff1673ffffffffffffffffffffffffffffffffffffffff163373ffffffffffffffffffffffffffffffffffffffff1614610631576040517f08c379a000000000000000000000000000000000000000000000000000000000815260040161062890612175565b60405180910390fd5b6005600085815260200190815260200160002060020160009054906101000a900460ff16610694576040517f08c379a000000000000000000000000000000000000000000000000000000000815260040161068b90612259565b60405180910390fd5b600360008154809291906106a7906121c4565b9190505550600760008581526020019081526020016000206040518060a0016040528060035481526020018681526020018581526020018481526020014281525090806001815401808255809150506001900390600052602060002090600502016000909190919091506000820151816000015560208201518160010155604082015181600201908051906020019061074192919061176d565b50606082015181600301908051906020019061075e92919061176d565b5060808201518160040155505060035490509392505050565b60008054906101000a900473ffffffffffffffffffffffffffffffffffffffff1673ffffffffffffffffffffffffffffffffffffffff163373ffffffffffffffffffffffffffffffffffffffff1614610805576040517f08c379a00000000000000000000000000000000000000000000000000000000081526004016107fc90612175565b60405180910390fd5b6000600860008581526020019081526020016000206000848152602001908152602001600020600083815260200190815260200160002060006101000a81548160ff021916908315150217905550505050565b60008054906101000a900473ffffffffffffffffffffffffffffffffffffffff1681565b60066020528060005260406000206000915090508060000154908060010180546108a5906122a8565b80601f01602080910402602001604051908101604052809291908181526020018280546108d1906122a8565b801561091e5780601f106108f35761010080835404028352916020019161091e565b820191906000526020600020905b81548152906001019060200180831161090157829003601f168201915b5050505050908060020160009054906101000a900460ff16905083565b6005602052806000526040600020600091509050806000015490806001018054610964906122a8565b80601f0160208091040260200160405190810160405280929190818152602001828054610990906122a8565b80156109dd5780601f106109b2576101008083540402835291602001916109dd565b820191906000526020600020905b8154815290600101906020018083116109c057829003601f168201915b5050505050908060020160009054906101000a900460ff16908060020160019054906101000a900460ff16905084565b6000816006600082815260200190815260200160002060020160009054906101000a900460ff16610a73576040517f08c379a0000000000000000000000000000000000000000000000000000000008152600401610a6a90612326565b60405180910390fd5b6005600086815260200190815260200160002060020160009054906101000a900460ff16610ad6576040517f08c379a0000000000000000000000000000000000000000000000000000000008152600401610acd90612259565b60405180910390fd5b6005600086815260200190815260200160002060020160019054906101000a900460ff16610b39576040517f08c379a0000000000000000000000000000000000000000000000000000000008152600401610b3090612392565b60405180910390fd5b6000805b6007600088815260200190815260200160002080549050811015610bb55785600760008981526020019081526020016000208281548110610b8157610b806123b2565b5b9060005260206000209060050201600001541415610ba25760019150610bb5565b8080610bad906121c4565b915050610b3d565b5080610bf6576040517f08c379a0000000000000000000000000000000000000000000000000000000008152600401610bed9061242d565b60405180910390fd5b60046000815480929190610c09906121c4565b91905055506040518060c001604052806004548152602001878152602001868152602001858152602001600015158152602001428152506009600060045481526020019081526020016000206000820151816000015560208201518160010155604082015181600201556060820151816003015560808201518160040160006101000a81548160ff02191690831515021790555060a08201518160050155905050600454925050509392505050565b6005600082815260200190815260200160002060020160009054906101000a900460ff16610d1b576040517f08c379a0000000000000000000000000000000000000000000000000000000008152600401610d1290612259565b60405180910390fd5b3273ffffffffffffffffffffffffffffffffffffffff163373ffffffffffffffffffffffffffffffffffffffff1614610d89576040517f08c379a0000000000000000000000000000000000000000000000000000000008152600401610d8090612499565b60405180910390fd5b60016005600083815260200190815260200160002060020160016101000a81548160ff02191690831515021790555050565b60045481565b60008060009054906101000a900473ffffffffffffffffffffffffffffffffffffffff1673ffffffffffffffffffffffffffffffffffffffff163373ffffffffffffffffffffffffffffffffffffffff1614610e52576040517f08c379a0000000000000000000000000000000000000000000000000000000008152600401610e4990612175565b60405180910390fd5b60016000815480929190610e65906121c4565b91905055506040518060800160405280600154815260200183815260200160011515815260200160001515815250600560006001548152602001908152602001600020600082015181600001556020820151816001019080519060200190610ece92919061176d565b5060408201518160020160006101000a81548160ff02191690831515021790555060608201518160020160016101000a81548160ff0219169083151502179055509050506001549050919050565b606060076000838152602001908152602001600020805480602002602001604051908101604052809291908181526020016000905b828210156110c557838290600052602060002090600502016040518060a00160405290816000820154815260200160018201548152602001600282018054610f98906122a8565b80601f0160208091040260200160405190810160405280929190818152602001828054610fc4906122a8565b80156110115780601f10610fe657610100808354040283529160200191611011565b820191906000526020600020905b815481529060010190602001808311610ff457829003601f168201915b5050505050815260200160038201805461102a906122a8565b80601f0160208091040260200160405190810160405280929190818152602001828054611056906122a8565b80156110a35780601f10611078576101008083540402835291602001916110a3565b820191906000526020600020905b81548152906001019060200180831161108657829003601f168201915b5050505050815260200160048201548152505081526020019060010190610f51565b505050509050919050565b60096020528060005260406000206000915090508060000154908060010154908060020154908060030154908060040160009054906101000a900460ff16908060050154905086565b60025481565b60035481565b6007602052816000526040600020818154811061114157600080fd5b906000526020600020906005020160009150915050806000015490806001015490806002018054611171906122a8565b80601f016020809104026020016040519081016040528092919081815260200182805461119d906122a8565b80156111ea5780601f106111bf576101008083540402835291602001916111ea565b820191906000526020600020905b8154815290600101906020018083116111cd57829003601f168201915b5050505050908060030180546111ff906122a8565b80601f016020809104026020016040519081016040528092919081815260200182805461122b906122a8565b80156112785780601f1061124d57610100808354040283529160200191611278565b820191906000526020600020905b81548152906001019060200180831161125b57829003601f168201915b5050505050908060040154905085565b6112906117f3565b600960008381526020019081526020016000206040518060c0016040529081600082015481526020016001820154815260200160028201548152602001600382015481526020016004820160009054906101000a900460ff161515151581526020016005820154815250509050919050565b60008054906101000a900473ffffffffffffffffffffffffffffffffffffffff1673ffffffffffffffffffffffffffffffffffffffff163373ffffffffffffffffffffffffffffffffffffffff1614611390576040517f08c379a000000000000000000000000000000000000000000000000000000000815260040161138790612175565b60405180910390fd5b60006009600083815260200190815260200160002090506000816000015414156113ef576040517f08c379a00000000000000000000000000000000000000000000000000000000081526004016113e690612505565b60405180910390fd5b60018160040160006101000a81548160ff0219169083151502179055506001600860008360010154815260200190815260200160002060008360020154815260200190815260200160002060008360030154815260200190815260200160002060006101000a81548160ff0219169083151502179055505050565b6008602052826000526040600020602052816000526040600020602052806000526040600020600092509250509054906101000a900460ff1681565b6114ae61182b565b600860008581526020019081526020016000206000848152602001908152602001600020600083815260200190815260200160002060009054906101000a900460ff16611530576040517f08c379a000000000000000000000000000000000000000000000000000000000815260040161152790612571565b60405180910390fd5b60005b600760008681526020019081526020016000208054905081101561172a5783600760008781526020019081526020016000208281548110611577576115766123b2565b5b9060005260206000209060050201600001541415611717576007600086815260200190815260200160002081815481106115b4576115b36123b2565b5b90600052602060002090600502016040518060a001604052908160008201548152602001600182015481526020016002820180546115f1906122a8565b80601f016020809104026020016040519081016040528092919081815260200182805461161d906122a8565b801561166a5780601f1061163f5761010080835404028352916020019161166a565b820191906000526020600020905b81548152906001019060200180831161164d57829003601f168201915b50505050508152602001600382018054611683906122a8565b80601f01602080910402602001604051908101604052809291908181526020018280546116af906122a8565b80156116fc5780601f106116d1576101008083540402835291602001916116fc565b820191906000526020600020905b8154815290600101906020018083116116df57829003601f168201915b50505050508152602001600482015481525050915050611766565b8080611722906121c4565b915050611533565b506040517f08c379a000000000000000000000000000000000000000000000000000000000815260040161175d9061242d565b60405180910390fd5b9392505050565b828054611779906122a8565b90600052602060002090601f01602090048101928261179b57600085556117e2565b82601f106117b457805160ff19168380011785556117e2565b828001600101855582156117e2579182015b828111156117e15782518255916020019190600101906117c6565b5b5090506117ef919061185a565b5090565b6040518060c0016040528060008152602001600081526020016000815260200160008152602001600015158152602001600081525090565b6040518060a0016040528060008152602001600081526020016060815260200160608152602001600081525090565b5b8082111561187357600081600090555060010161185b565b5090565b6000604051905090565b600080fd5b600080fd5b600080fd5b600080fd5b6000601f19601f8301169050919050565b7f4e487b7100000000000000000000000000000000000000000000000000000000600052604160045260246000fd5b6118de82611895565b810181811067ffffffffffffffff821117156118fd576118fc6118a6565b5b80604052505050565b6000611910611877565b905061191c82826118d5565b919050565b600067ffffffffffffffff82111561193c5761193b6118a6565b5b61194582611895565b9050602081019050919050565b82818337600083830152505050565b600061197461196f84611921565b611906565b9050828152602081018484840111156119905761198f611890565b5b61199b848285611952565b509392505050565b600082601f8301126119b8576119b761188b565b5b81356119c8848260208601611961565b91505092915050565b6000602082840312156119e7576119e6611881565b5b600082013567ffffffffffffffff811115611a0557611a04611886565b5b611a11848285016119a3565b91505092915050565b6000819050919050565b611a2d81611a1a565b82525050565b6000602082019050611a486000830184611a24565b92915050565b611a5781611a1a565b8114611a6257600080fd5b50565b600081359050611a7481611a4e565b92915050565b600080600060608486031215611a9357611a92611881565b5b6000611aa186828701611a65565b935050602084013567ffffffffffffffff811115611ac257611ac1611886565b5b611ace868287016119a3565b925050604084013567ffffffffffffffff811115611aef57611aee611886565b5b611afb868287016119a3565b9150509250925092565b600080600060608486031215611b1e57611b1d611881565b5b6000611b2c86828701611a65565b9350506020611b3d86828701611a65565b9250506040611b4e86828701611a65565b9150509250925092565b600073ffffffffffffffffffffffffffffffffffffffff82169050919050565b6000611b8382611b58565b9050919050565b611b9381611b78565b82525050565b6000602082019050611bae6000830184611b8a565b92915050565b600060208284031215611bca57611bc9611881565b5b6000611bd884828501611a65565b91505092915050565b600081519050919050565b600082825260208201905092915050565b60005b83811015611c1b578082015181840152602081019050611c00565b83811115611c2a576000848401525b50505050565b6000611c3b82611be1565b611c458185611bec565b9350611c55818560208601611bfd565b611c5e81611895565b840191505092915050565b60008115159050919050565b611c7e81611c69565b82525050565b6000606082019050611c996000830186611a24565b8181036020830152611cab8185611c30565b9050611cba6040830184611c75565b949350505050565b6000608082019050611cd76000830187611a24565b8181036020830152611ce98186611c30565b9050611cf86040830185611c75565b611d056060830184611c75565b95945050505050565b600081519050919050565b600082825260208201905092915050565b6000819050602082019050919050565b611d4381611a1a565b82525050565b600082825260208201905092915050565b6000611d6582611be1565b611d6f8185611d49565b9350611d7f818560208601611bfd565b611d8881611895565b840191505092915050565b600060a083016000830151611dab6000860182611d3a565b506020830151611dbe6020860182611d3a565b5060408301518482036040860152611dd68282611d5a565b91505060608301518482036060860152611df08282611d5a565b9150506080830151611e056080860182611d3a565b508091505092915050565b6000611e1c8383611d93565b905092915050565b6000602082019050919050565b6000611e3c82611d0e565b611e468185611d19565b935083602082028501611e5885611d2a565b8060005b85811015611e945784840389528151611e758582611e10565b9450611e8083611e24565b925060208a01995050600181019050611e5c565b50829750879550505050505092915050565b60006020820190508181036000830152611ec08184611e31565b905092915050565b600060c082019050611edd6000830189611a24565b611eea6020830188611a24565b611ef76040830187611a24565b611f046060830186611a24565b611f116080830185611c75565b611f1e60a0830184611a24565b979650505050505050565b60008060408385031215611f4057611f3f611881565b5b6000611f4e85828601611a65565b9250506020611f5f85828601611a65565b9150509250929050565b600060a082019050611f7e6000830188611a24565b611f8b6020830187611a24565b8181036040830152611f9d8186611c30565b90508181036060830152611fb18185611c30565b9050611fc06080830184611a24565b9695505050505050565b611fd381611c69565b82525050565b60c082016000820151611fef6000850182611d3a565b5060208201516120026020850182611d3a565b5060408201516120156040850182611d3a565b5060608201516120286060850182611d3a565b50608082015161203b6080850182611fca565b5060a082015161204e60a0850182611d3a565b50505050565b600060c0820190506120696000830184611fd9565b92915050565b60006020820190506120846000830184611c75565b92915050565b600060a0830160008301516120a26000860182611d3a565b5060208301516120b56020860182611d3a565b50604083015184820360408601526120cd8282611d5a565b915050606083015184820360608601526120e78282611d5a565b91505060808301516120fc6080860182611d3a565b508091505092915050565b60006020820190508181036000830152612121818461208a565b905092915050565b7f4f6e6c7920676f7665726e6d656e7420616c6c6f776564000000000000000000600082015250565b600061215f601783611bec565b915061216a82612129565b602082019050919050565b6000602082019050818103600083015261218e81612152565b9050919050565b7f4e487b7100000000000000000000000000000000000000000000000000000000600052601160045260246000fd5b60006121cf82611a1a565b91507fffffffffffffffffffffffffffffffffffffffffffffffffffffffffffffffff82141561220257612201612195565b5b600182019050919050565b7f55736572206e6f74207265676973746572656400000000000000000000000000600082015250565b6000612243601383611bec565b915061224e8261220d565b602082019050919050565b6000602082019050818103600083015261227281612236565b9050919050565b7f4e487b7100000000000000000000000000000000000000000000000000000000600052602260045260246000fd5b600060028204905060018216806122c057607f821691505b602082108114156122d4576122d3612279565b5b50919050565b7f4f6e6c79207265676973746572656420636f6d70616e792063616e2063616c6c600082015250565b6000612310602083611bec565b915061231b826122da565b602082019050919050565b6000602082019050818103600083015261233f81612303565b9050919050565b7f5573657220686173206e6f7420676976656e20636f6e73656e74000000000000600082015250565b600061237c601a83611bec565b915061238782612346565b602082019050919050565b600060208201905081810360008301526123ab8161236f565b9050919050565b7f4e487b7100000000000000000000000000000000000000000000000000000000600052603260045260246000fd5b7f446f63756d656e74206e6f7420666f756e640000000000000000000000000000600082015250565b6000612417601283611bec565b9150612422826123e1565b602082019050919050565b600060208201905081810360008301526124468161240a565b9050919050565b7f436f6e7472616374732063616e6e6f74206769766520636f6e73656e74000000600082015250565b6000612483601d83611bec565b915061248e8261244d565b602082019050919050565b600060208201905081810360008301526124b281612476565b9050919050565b7f52657175657374206e6f7420666f756e64000000000000000000000000000000600082015250565b60006124ef601183611bec565b91506124fa826124b9565b602082019050919050565b6000602082019050818103600083015261251e816124e2565b9050919050565b7f416363657373206e6f7420617070726f76656400000000000000000000000000600082015250565b600061255b601383611bec565b915061256682612525565b602082019050919050565b6000602082019050818103600083015261258a8161254e565b905091905056fea2646970667358221220a16da6352b238a0d7bc93c0fd0f8165a6ab33db9bc527c272c0168741017e5ce64736f6c634300080b0033",
  "immutableReferences": {},
  "source": "// SPDX-License-Identifier: MIT\r\npragma solidity ^0.8;\r\n\r\ncontract DPDPDocumentSharing {\r\n\r\n    address public government;\r\n    uint256 public userCount;\r\n    uint256 public companyCount;\r\n    uint256 public documentCount;\r\n    uint256 public requestCount;\r\n\r\n    constructor() {\r\n        government = msg.sender;\r\n    }\r\n\r\n    struct User {\r\n        uint256 id;\r\n        string name;\r\n        bool registered;\r\n        bool consentGiven;\r\n    }\r\n\r\n    struct Company {\r\n        uint256 id;\r\n        string name;\r\n        bool registered;\r\n    }\r\n\r\n    struct Document {\r\n        uint256 id;\r\n        uint256 userId;\r\n        string ipfsHash;\r\n        string docType;\r\n        uint256 timestamp;\r\n    }\r\n\r\n    struct DocumentRequest {\r\n        uint256 requestId;\r\n        uint256 userId;\r\n        uint256 documentId;\r\n        uint256 companyId;\r\n        bool approved;\r\n        uint256 timestamp;\r\n    }\r\n\r\n    mapping(uint256 => User) public users;\r\n    mapping(uint256 => Company) public companies;\r\n    mapping(uint256 => Document[]) public userDocuments; // userId => documents\r\n    mapping(uint256 => mapping(uint256 => mapping(uint256 => bool))) public documentAccess; \r\n    // userId => documentId => companyId => access\r\n    mapping(uint256 => DocumentRequest) public requests; // requestId => request\r\n\r\n    modifier onlyGovernment() {\r\n        require(msg.sender == government, \"Only government allowed\");\r\n        _;\r\n    }\r\n\r\n    modifier onlyCompany(uint256 _companyId) {\r\n        require(companies[_companyId].registered, \"Only registered company can call\");\r\n        _;\r\n    }\r\n\r\n    // === Registration ===\r\n    function registerUser(string memory _name) external onlyGovernment returns(uint256) {\r\n        userCount++;\r\n        users[userCount] = User(userCount, _name, true, false);\r\n        return userCount;\r\n    }\r\n\r\n    function registerCompany(string memory _name) external onlyGovernment returns(uint256) {\r\n        companyCount++;\r\n        companies[companyCount] = Company(companyCount, _name, true);\r\n        return companyCount;\r\n    }\r\n\r\n    // === User Consent ===\r\n    function giveConsent(uint256 _userId) external {\r\n        require(users[_userId].registered, \"User not registered\");\r\n        require(msg.sender == tx.origin, \"Contracts cannot give consent\");\r\n        users[_userId].consentGiven = true;\r\n    }\r\n\r\n    // === Government Upload Document ===\r\n    function uploadDocument(uint256 _userId, string memory _ipfsHash, string memory _docType) external onlyGovernment returns(uint256) {\r\n        require(users[_userId].registered, \"User not registered\");\r\n        documentCount++;\r\n        userDocuments[_userId].push(Document(documentCount, _userId, _ipfsHash, _docType, block.timestamp));\r\n        return documentCount;\r\n    }\r\n\r\n    // === Company Request Document ===\r\n    function requestDocument(uint256 _userId, uint256 _documentId, uint256 _companyId) external onlyCompany(_companyId) returns(uint256) {\r\n        require(users[_userId].registered, \"User not registered\");\r\n        require(users[_userId].consentGiven, \"User has not given consent\");\r\n\r\n        bool found = false;\r\n        for(uint i = 0; i < userDocuments[_userId].length; i++) {\r\n            if(userDocuments[_userId][i].id == _documentId) {\r\n                found = true;\r\n                break;\r\n            }\r\n        }\r\n        require(found, \"Document not found\");\r\n\r\n        requestCount++;\r\n        requests[requestCount] = DocumentRequest(requestCount, _userId, _documentId, _companyId, false, block.timestamp);\r\n        return requestCount; // returns the requestId\r\n    }\r\n\r\n    // === Government Approve Access ===\r\n    function approveRequest(uint256 _requestId) external onlyGovernment {\r\n        DocumentRequest storage req = requests[_requestId];\r\n        require(req.requestId != 0, \"Request not found\");\r\n        req.approved = true;\r\n        documentAccess[req.userId][req.documentId][req.companyId] = true;\r\n    }\r\n\r\n    // === Government Revoke Access ===\r\n    function revokeAccess(uint256 _userId, uint256 _documentId, uint256 _companyId) external onlyGovernment {\r\n        documentAccess[_userId][_documentId][_companyId] = false;\r\n    }\r\n\r\n    // === Company Get Document ===\r\n    function getDocument(uint256 _userId, uint256 _documentId, uint256 _companyId) external view returns (Document memory) {\r\n        require(documentAccess[_userId][_documentId][_companyId], \"Access not approved\");\r\n        for(uint i = 0; i < userDocuments[_userId].length; i++) {\r\n            if(userDocuments[_userId][i].id == _documentId) {\r\n                return userDocuments[_userId][i];\r\n            }\r\n        }\r\n        revert(\"Document not found\");\r\n    }\r\n\r\n    // === Get All Documents of User (Listing) ===\r\n    function getUserDocuments(uint256 _userId) external view returns (Document[] memory) {\r\n        return userDocuments[_userId];\r\n    }\r\n\r\n    // === Get Request Details ===\r\n    function getRequest(uint256 _requestId) external view returns (DocumentRequest memory) {\r\n        return requests[_requestId];\r\n    }\r\n}\r\n",
  "sourcePath": "C:\\cip\\NewBlock\\NLH_BlockChain_BESU_Setup\\contracts\\DPDPDocumentSharing.sol",
  "compiler": {
    "name": "solc",
    "version": "0.8.11+commit.d7f03943.Emscripten.clang"
  },
  "schemaVersion": "3.4.16",
  "updatedAt": "2025-08-22T08:00:00.248Z",
  "devdoc": {
    "kind": "dev",
    "methods": {},
    "version": 1
  },
  "userdoc": {
    "kind": "user",
    "methods": {},
    "version": 1
  }
}